:020000040000FA
:100000000C945D000C9485000C9485000C94850084
:100010000C9485000C9485000C9485000C9485004C
:100020000C9485000C9485000C9485000C9485003C
:100030000C9485000C9485000C9485000C9485002C
:100040000C94E7020C9485000C9457030C94310334
:100050000C9485000C9485000C9485000C9485000C
:100060000C9485000C94850000000008000201003B
:100070000003040700000000000000000000000072
:10008000250028002B0000000000240027002A0083
:10009000040404040404040402020202020203032E
:1000A0000303030301020408102040800102040836
:1000B0001020010204081020B40611241FBECFEF47
:1000C000D8E0DEBFCDBF12E0A0E0B1E0E8EDFEE099
:1000D00002C005900D92A03CB107D9F723E0A0EC37
:1000E000B2E001C01D92A037B207E1F710E0CDE504
:1000F000D0E004C02197FE010E946407CC35D107EF
:10010000C9F70E9489030C946A070C94000090E0E0
:10011000FC01EC55FF4F249180579F4FFC018491C7
:10012000882399F090E0880F991FFC01EA57FF4F50
:10013000A591B491FC01E458FF4F859194918FB73C
:10014000F894EC91E22BEC938FBF089590E0FC01C2
:10015000E859FF4F2491FC01EC55FF4F3491FC010D
:10016000E057FF4FE491EE23C9F0222339F023300A
:1001700001F1A8F4213019F1223029F1F0E0EE0F5D
:10018000FF1FE458FF4FA591B4918FB7F894EC91FD
:10019000611126C030953E233C938FBF08952730D0
:1001A000A9F02830C9F0243049F7809180008F7D74
:1001B00003C0809180008F7780938000DFCF84B56B
:1001C0008F7784BDDBCF84B58F7DFBCF8091B0006E
:1001D0008F778093B000D2CF8091B0008F7DF9CF20
:1001E0003E2BDACF3FB7F8948091CF029091D002A6
:1001F000A091D102B091D20226B5A89B05C02F3F95
:1002000019F00196A11DB11D3FBFBA2FA92F982F3C
:100210008827BC01CD01620F711D811D911D42E037
:10022000660F771F881F991F4A95D1F708958F92FF
:100230009F92AF92BF92CF92DF92EF92FF924B01CB
:100240005C010E94F2006B017C010E94F2006C19BB
:100250007D098E099F09683E734081059105A8F3C9
:1002600021E0821A9108A108B10888EEC80E83E047
:10027000D81EE11CF11C81149104A104B10429F7DA
:10028000FF90EF90DF90CF90BF90AF909F908F90B6
:100290000895AF92BF92CF92DF92EF92FF920F93A9
:1002A0001F93CF93DF936C017B018B01040F151F0C
:1002B000EB015E01AE18BF08C017D10759F0699174
:1002C000D601ED91FC910190F081E02DC6010995D8
:1002D000892B79F7C501DF91CF911F910F91FF9085
:1002E000EF90DF90CF90BF90AF900895FC01538DB9
:1002F000448D252F30E0842F90E0821B930B541700
:1003000010F0CF96089501970895FC01918D828D8C
:10031000981761F0A28DAE0FBF2FB11D5D968C9125
:10032000928D9F5F9F73928F90E008958FEF9FEF64
:100330000895FC01918D828D981731F0828DE80F20
:10034000F11D858D90E008958FEF9FEF0895FC01DA
:10035000918D228D892F90E0805C9F4F821B9109A7
:100360008F739927089583ED92E00E94A70121E001
:10037000892B09F420E0822F089580E090E0892BFA
:1003800029F00E94B30181110C9400000895FC0132
:10039000A48DA80FB92FB11DA35ABF4F2C91848DE6
:1003A00090E001968F739927848FA689B7892C9343
:1003B000A089B1898C91837080648C93938D848D96
:1003C000981306C00288F389E02D80818F7D808399
:1003D0000895EF92FF920F931F93CF93DF93EC0159
:1003E00081E0888F9B8D8C8D98131AC0E889F989DC
:1003F000808185FF15C09FB7F894EE89FF896083DF
:10040000E889F98980818370806480839FBF81E05F
:1004100090E0DF91CF911F910F91FF90EF900895A1
:10042000F62E0B8D10E00F5F1F4F0F731127E02E7C
:100430008C8D8E110CC00FB607FCFACFE889F989B4
:10044000808185FFF5CFCE010E94C701F1CFEB8DF2
:10045000EC0FFD2FF11DE35AFF4FF0829FB7F89488
:100460000B8FEA89FB8980818062CFCFCF93DF93A6
:10047000EC01888D8823B9F0AA89BB89E889F989BC
:100480008C9185FD03C0808186FD0DC00FB607FCF1
:10049000F7CF8C9185FFF2CF808185FFEDCFCE0124
:1004A0000E94C701E9CFDF91CF910895FC0101902F
:1004B0000020E9F73197AF01481B590BBC0183EDD0
:1004C00092E00C9449018F929F92AF92BF920F934A
:1004D0001F93CF93DF93CDB7DEB7A1970FB6F894F4
:1004E000DEBF0FBECDBF19A2423008F44AE08E0134
:1004F0000F5D1F4F842E912CB12CA12CA5019401CE
:100500000E940507E62FB901CA01EA30F4F4E05D64
:10051000D801EE938D01232B242B252B79F790E026
:1005200080E0109719F0CD010E945602A1960FB6F7
:10053000F894DEBF0FBECDBFDF91CF911F910F9119
:10054000BF90AF909F908F900895E95CE1CFCF93DB
:10055000DF930E945602EC0189E291E00E9456026C
:100560008C0F9D1FDF91CF9108950C945602CF926E
:10057000DF92EF92FF92CF93DF936C01990FEE0819
:10058000FF08F7FE19C06DE283ED92E00E94E901D9
:10059000EC0166277727CB016C197D098E099F092D
:1005A0004AE00E9463028C0F9D1FDF91CF91FF9064
:1005B000EF90DF90CF9008954AE0C701B601DF9138
:1005C000CF91FF90EF90DF90CF900C9463021F9239
:1005D0000F920FB60F9211242F933F938F939F93F7
:1005E000AF93BF938091CB029091CC02A091CD02AA
:1005F000B091CE023091CA0223E0230F2D3758F577
:100600000196A11DB11D2093CA028093CB02909345
:10061000CC02A093CD02B093CE028091CF029091F4
:10062000D002A091D102B091D2020196A11DB11DBC
:100630008093CF029093D002A093D102B093D202C4
:10064000BF91AF919F918F913F912F910F900FBECE
:100650000F901F90189526E8230F0296A11DB11D3B
:10066000D2CF1F920F920FB60F9211242F933F9368
:100670004F935F936F937F938F939F93AF93BF93AA
:10068000EF93FF9383ED92E00E94C701FF91EF91FA
:10069000BF91AF919F918F917F916F915F914F919A
:1006A0003F912F910F900FBE0F901F9018951F92A2
:1006B0000F920FB60F9211242F938F939F93EF9366
:1006C000FF93E091E302F091E4028081E091E9027E
:1006D000F091EA0282FD1BC090818091EC028F5F55
:1006E0008F732091ED02821741F0E091EC02F0E06F
:1006F000ED52FD4F958F8093EC02FF91EF919F910A
:100700008F912F910F900FBE0F901F9018958081A1
:10071000F4CFCF93DF93CDB7DEB766970FB6F894DB
:10072000DEBF0FBECDBF789484B5826084BD84B532
:10073000816084BD85B5826085BD85B5816085BDDC
:1007400080916E00816080936E0010928100809194
:10075000810082608093810080918100816080931C
:100760008100809180008160809380008091B10041
:1007700084608093B1008091B00081608093B0006C
:1007800080917A00846080937A0080917A00826000
:1007900080937A0080917A00816080937A008091C2
:1007A0007A00806880937A001092C100E091E302A1
:1007B000F091E40282E08083E091DF02F091E002B8
:1007C0001082E091E102F091E2028FEC80831092BE
:1007D000EB02E091E702F091E80286E08083E0918D
:1007E000E502F091E602808180618083E091E5027C
:1007F000F091E602808188608083E091E502F091CB
:10080000E602808180688083E091E502F091E60253
:1008100080818F7D808382E00E94870083E00E9438
:10082000870061E082E00E94A60061E083E00E9410
:10083000A60089E00E94870061E089E00E94A6008E
:1008400064EF71E080E090E00E94170160E082E0D8
:100850000E94A60060E083E00E94A60089E00E945A
:10086000870060E089E00E94A60087E391E00E9493
:10087000A70289E691E00E94A70283E991E00E9425
:10088000A70284EB91E00E94A70283EE91E00E9410
:10089000A70287E391E00E94A70287E192E00E940D
:1008A000A70282E592E00E94A7028091C602909181
:1008B000C702A091C802B091C9020196A11DB11D45
:1008C0008093C6029093C702A093C802B093C90256
:1008D0008FB7F8942091CB023091CC024091CD0299
:1008E0005091CE022F87388B498B5A8B8FBF80E473
:1008F00080937C0080917A00806480937A0080915C
:100900007A0086FDFCCF20907800309079008091AD
:10091000C4029091C502FC01EE0FFF1FE050FF4F93
:1009200031822082019663E070E00E94F10690938C
:10093000C5028093C4028FB7F8942091CB02309106
:10094000CC024091CD025091CE022B873C874D873F
:100950005E878FBF209100013091010180910401D9
:1009600090910501F901E81BF90BFC83EB83E3E0AF
:10097000F4EFCC24C3946CEFD62EEE24EA94FE2C34
:100980001D821E8244244A94542C642C7FE7772EC7
:10099000CB8ADC8AAAE1B0E0A70196010E94450754
:1009A0009B01AC01C701B6010E94E106272F382F39
:1009B000492F552747FD5A952F83388749875A87EE
:1009C0004B815C81420D531D5E8B4D8BFA83E98315
:1009D00003E010E0812C912C540189819A8166EF0B
:1009E0007FEF0E94F1064D895E89640F751FA0E0BC
:1009F000B2E0A61BB70B9D010E9427072F81388507
:100A000049855A85620F731F841F951F860E971E96
:100A1000A81EB91E0150110949815A814E0F5F1F4E
:100A20005A8349834D895E898B819C81480F591F68
:100A30005E8B4D8B0115110581F684149504A60477
:100A4000B70434F49B899D83AC89AE8324013501BE
:100A5000B4EFCB0EB1E0DB1EE11CF11CE452FA4F07
:100A600025ECC21625E0D206E104F10409F090CF8E
:100A70008FB7F894C090CB02D090CC02E090CD021A
:100A8000F090CE028FBF8B859C85AD85BE85C81A40
:100A9000D90AEA0AFB0A612C32E0732E6218730845
:100AA00010E000E012141304BCF401E010E094E341
:100AB000291691E0390684F002E010E0A3EC2A1632
:100AC000A2E03A064CF004E010E0BFEF2B16B3E0D2
:100AD0003B0614F403E010E024E6229DC001239DB0
:100AE000900D11246FEF73E00E94F1065B01E0E5C9
:100AF000CE16D104E104F10498F08091C0029091E7
:100B0000C102A091C202B091C3020196A11DB11D04
:100B10008093C0029093C102A093C202B093C3021B
:100B2000C80101978330910508F0BFC0FC01EA5D60
:100B3000FE4F6081FC01ED5DFE4F2081422F042EAF
:100B4000000C550B5A834983805E9E4FDC019C90BC
:100B5000F0E5CF16D104E104F10420F01A821982E5
:100B6000912C61E083E00E94A600692D82E00E9442
:100B7000A60089E00E94870029813A81232B09F091
:100B80009BC060E089E00E94A6006091C60270915F
:100B9000C7028091C8029091C9020430110509F47E
:100BA000DEC0000F111FF801E85EFE4F2081318189
:100BB0003A8329832FE936E841E050E00E94050797
:100BC0004AE00E9463028FE892E00E94B502C101F0
:100BD0000E94B7028FE892E00E94B502C5010E9410
:100BE000B7028DE892E00E94B50289819A810E9445
:100BF000B5028FE892E00E94B502C3010E94B702DD
:100C00008FE892E00E94B5028D819E810E94B7021A
:100C10008FE892E00E94B5024AE0C701B6010E9447
:100C200063028FE892E00E94B5026091C002709169
:100C3000C1028091C2029091C3024AE00E94630205
:100C400089E291E00E9456022FB7F8948091CB027E
:100C50009091CC02A091CD02B091CE022FBF2F85F2
:100C6000388949895A89821B930BA40BB50B8436AA
:100C70009105A105B10560F424E630E040E050E0C4
:100C8000281B390B4A0B5B0BCA01B9010E941701E3
:100C900080E090E0892B09F408CE0E94B3018823FC
:100CA00009F403CE0E94000000CE912CEFEFF0E09B
:100CB000FA83E98361E04CCF49815A814F3F510566
:100CC00011F461E05FCFE1E7F0E08491833049F116
:100CD00050F48130D1F08230F1F0E981FA81E038CE
:100CE000F1057CF74ECF873041F1883079F18430BF
:100CF000A1F78091800080628093800089819A8131
:100D000090938B0080938A0040CF84B5806884BD27
:100D1000F981F7BD3ACF84B5806284BD298128BDB1
:100D200034CF8091800080688093800049815A810F
:100D3000509389004093880028CF8091B00080684C
:100D40008093B00099819093B3001FCF8091B00041
:100D500080628093B000A981A093B40016CF4CE2CA
:100D600051E05A83498326CFE3EDF2E013821282E9
:100D700088EE93E0A0E0B0E084839583A683B783F8
:100D80008AE091E09183808385EC90E09587848769
:100D900084EC90E09787868780EC90E0918B808B45
:100DA00081EC90E0938B828B82EC90E0958B848B2E
:100DB00086EC90E0978B868B118E128E138E148E9C
:100DC0000895DB018F939F930E944507BF91AF91D8
:100DD000A29F800D911DA39F900DB29F900D112495
:100DE000089597FB072E16F4009407D077FD09D0DD
:100DF0000E94500707FC05D03EF4909581959F4FC7
:100E00000895709561957F4F0895A1E21A2EAA1B4F
:100E1000BB1BFD010DC0AA1FBB1FEE1FFF1FA217AA
:100E2000B307E407F50720F0A21BB30BE40BF50BA7
:100E3000661F771F881F991F1A9469F76095709530
:100E4000809590959B01AC01BD01CF0108950E9452
:100E50002F07332312F48A1B9B0B0C944007A29F8D
:100E6000B001B39FC001A39F700D811D1124911D7E
:100E7000B29F700D811D1124911D08950E942F07AE
:100E8000B7FF0895821B930B08950E942F07A59F1B
:100E9000900DB49F900DA49F800D911D1124089575
:100EA000AA1BBB1B51E107C0AA1FBB1FA617B70790
:100EB00010F0A61BB70B881F991F5A95A9F78095AC
:100EC0009095BC01CD010895EE0FFF1F0590F491A0
:100ED000E02D0994F894FFCF000200020002000008
:100EE0000000E901490176013602A7018501990157
:100EF00093029E02A902B4020001004D004D0100C0
:100F0000010D0A00313030253A4D41582020003D76
:100F10003D3D3D3D3D3D3D3D3D3D3D3D3D3D3D3D01
:100F20003D3D3D3D3D3D3D3D3D3D3D3D3D3D3D3DF1
:100F30003D3D3D3D3D3D3D3D3D3D3D3D3D3D3D3DE1
:100F40000020205365634D50432D5254207C205087
:100F5000726F74657573207C20534554504F494E11
:100F6000543D353132283530252900202041444375
:100F70002052414E47453A20303D302520202E2E2C
:100F80002020313032333D313030250020204C4597
:100F9000443A204D455241483D6661756C74207C51
:100FA000204B554E494E473D50574D207C204849D7
:100FB0004A41553D6E6F726D616C00202030252DC9
:100FC0003E42617461737C3C3D3330252D3E526559
:100FD0006475707C33312D3639252D3E4E6F726D20
:100FE000616C7C7E3730252D3E52656475700049FA
:100FF000746572207C20414443207C2070637425FA
:10100000207C205A6F6E65202020202020207C200C
:10101000457272207C20755F6F7074207C20545F55
:101020006D73207C204D495353002D2D2D2D2D2BDC
:101030002D2D2D2D2D2B2D2D2D2D2D2D2B2D2D2DE4
:101040002D2D2D2D2D2D2D2D2D2B2D2D2D2D2D2BD4
:101050002D2D2D2D2D2D2D2B2D2D2D2D2D2D2B2DC4
:101060002D2D2D2D002520207C200030253A4241B9
:101070005441532020003C3D3330253A44494D2013
:10108000004E4F524D414C20202020003730253A51
:0810900044494D20202000001E
:107E0000112484B714BE81FFF0D085E080938100F7
:107E100082E08093C00088E18093C10086E0809377
:107E2000C20080E18093C4008EE0C9D0259A86E02C
:107E300020E33CEF91E0309385002093840096BBD3
:107E4000B09BFECF1D9AA8958150A9F7CC24DD24C4
:107E500088248394B5E0AB2EA1E19A2EF3E0BF2EE7
:107E6000A2D0813461F49FD0082FAFD0023811F036
:107E7000013811F484E001C083E08DD089C08234E0
:107E800011F484E103C0853419F485E0A6D080C0E4
:107E9000853579F488D0E82EFF2485D0082F10E0AE
:107EA000102F00270E291F29000F111F8ED06801E7
:107EB0006FC0863521F484E090D080E0DECF843638
:107EC00009F040C070D06FD0082F6DD080E0C81688
:107ED00080E7D80618F4F601B7BEE895C0E0D1E017
:107EE00062D089930C17E1F7F0E0CF16F0E7DF06D8
:107EF00018F0F601B7BEE89568D007B600FCFDCFD4
:107F0000A601A0E0B1E02C9130E011968C91119780
:107F100090E0982F8827822B932B1296FA010C0160
:107F200087BEE89511244E5F5F4FF1E0A038BF0790
:107F300051F7F601A7BEE89507B600FCFDCF97BE46
:107F4000E89526C08437B1F42ED02DD0F82E2BD052
:107F50003CD0F601EF2C8F010F5F1F4F84911BD097
:107F6000EA94F801C1F70894C11CD11CFA94CF0C13
:107F7000D11C0EC0853739F428D08EE10CD085E9AC
:107F80000AD08FE07ACF813511F488E018D01DD067
:107F900080E101D065CF982F8091C00085FFFCCF94
:107FA0009093C60008958091C00087FFFCCF809118
:107FB000C00084FD01C0A8958091C6000895E0E648
:107FC000F0E098E1908380830895EDDF803219F02E
:107FD00088E0F5DFFFCF84E1DECF1F93182FE3DFCA
:107FE0001150E9F7F2DF1F91089580E0E8DFEE27F6
:047FF000FF270994CA
:027FFE00040479
:00000001FF
